:100000000C942A000C9447000C9447000C94470071
:100010000C9447000C9447000C9447000C94470044
:100020000C9447000C9447000C9447000C94470034
:100030000C9447000C9447000C9447000C94470024
:100040000C9447000C9447000C9447000C94470014
:100050000C94470011241FBECFE5D4E0DEBFCDBF16
:1000600010E0A0E6B0E0EAEEFAE002C005900D92E2
:10007000AC38B107D9F720E0ACE8B0E001C01D9280
:10008000A239B207E1F70E94D6000C9473050C94D4
:100090000000CF93DF9300D00F92CDB7DEB78983F6
:1000A0007B836A8301C000008BE290E0FC018081C9
:1000B000882F90E0807299270097A9F38CE290E056
:1000C0002981FC01208381E090E00F900F900F9038
:1000D000DF91CF910895CF93DF9300D00F92CDB7EA
:1000E000DEB78B8381E090E09A83898380918E00D4
:1000F00090918F00BC018AE00E94490080918E009F
:1001000090918F00BC0180E30E94490080918E0095
:1001100090918F00BC0182E60E9449001AC0409174
:100120008E0050918F008B81282F880F330B89818F
:100130009A8182239323009711F081E301C080E329
:10014000BA010E94490089819A81880F991F9A8378
:10015000898389819A818F3F91050CF3000000000B
:100160000F900F900F90DF91CF910895CF93DF9371
:10017000CDB7DEB78BE290E022E0FC0120838AE27B
:1001800090E028E0FC01208380E490E026E8FC0178
:10019000208389E290E02CE0FC0120838AE390E058
:1001A000FC0110820000DF91CF910895CF93DF937F
:1001B000CDB7DEB760970FB6F894DEBF0FBECDBFE8
:1001C0000E94B60080E690E090938F0080938E00AE
:1001D0001A82198280E090E0AAE7B3E48B839C83C3
:1001E000AD83BE8320E030E04AE755E46B817C813B
:1001F0008D819E810E940102DC01CB018F83988753
:10020000A987BA8720E030E040E85FE36F81788516
:1002100089859A850E947B0181152CF481E090E00C
:100220009C878B8740C020E03FEF4FE757E46F810A
:10023000788589859A850E94FC01813054F120E0FF
:1002400030E040E251E46B817C818D819E810E948F
:100250000102DC01CB01BC01CD010E948001DC0167
:10026000CB019C878B8710C080E991E09E878D87AA
:100270008D859E850197F1F79E878D8700008B8580
:100280009C8501979C878B878B859C85009761F760
:1002900015C06F81788589859A850E948001DC016F
:1002A000CB019C878B878B859C85988B8F878F85CF
:1002B00098890197F1F7988B8F87000089E390E088
:1002C000FC018081882F90E0292F2F938F938EE659
:1002D00090E0892F8F938EE690E08F930E94960294
:1002E0000F900F900F900F9089E390E0FC018081B8
:1002F0000E946B006FCF0E94AF0108F481E0089567
:100300000E94DB0188F09F5798F0B92F9927B751C9
:10031000B0F0E1F0660F771F881F991F1AF0BA95A9
:10032000C9F714C0B13091F00E94F501B1E0089511
:100330000C94F501672F782F8827B85F39F0B93F03
:10034000CCF3869577956795B395D9F73EF490955C
:100350008095709561957F4F8F4F9F4F0895990FAE
:100360000008550FAA0BE0E8FEEF16161706E8077F
:10037000F907C0F012161306E407F50798F0621BA0
:10038000730B840B950B39F40A2661F0232B242B75
:10039000252B21F408950A2609F4A140A6958FEF94
:1003A000811D811D089557FD9058440F551F59F028
:1003B0005F3F71F04795880F97FB991F61F09F3F52
:1003C00079F087950895121613061406551FF2CF7B
:1003D0004695F1DF08C0161617061806991FF1CFCB
:1003E00086957105610508940895E894BB276627F2
:1003F0007727CB0197F908950E94AF0108F48FEF9A
:1004000008950E9414020C9485020E94770238F02D
:100410000E947E0220F0952311F00C946E020C9441
:10042000740211240C94F6010E94D30170F3959F7D
:10043000C1F3950F50E0551F629FF001729FBB27DB
:10044000F00DB11D639FAA27F00DB11DAA1F649F77
:100450006627B00DA11D661F829F2227B00DA11D2A
:10046000621F739FB00DA11D621F839FA00D611DB0
:10047000221F749F3327A00D611D231F849F600DD1
:10048000211D822F762F6A2F11249F5750409AF0FA
:10049000F1F088234AF0EE0FFF1FBB1F661F771F86
:1004A000881F91505040A9F79E3F510580F00C9451
:1004B0006E020C94F6015F3FE4F3983ED4F3869508
:1004C00077956795B795F795E7959F5FC1F7FE2BF1
:1004D000880F911D9695879597F9089597F99F67CD
:1004E00080E870E060E008959FEF80EC08950024BC
:1004F0000A941616170618060906089500240A9489
:1005000012161306140605060895092E0394000C0E
:1005100011F4882352F0BB0F40F4BF2B11F460FF9D
:1005200004C06F5F7F4F8F4F9F4F0895A0E0B0E0F2
:10053000ECE9F2E00C944C05AE014B5F5F4FFA0121
:1005400061917191AF0180918E0090918F000E9416
:10055000AC02E2E00C946805ABE0B0E0E2EBF2E064
:100560000C943D056C017B018A01FC011782168207
:10057000838181FFDAC19AE0492EF6012381F701D8
:1005800023FD859123FF81917F01811509F41FC10E
:10059000853239F423FD959123FF91917F019532A6
:1005A00029F4B60190E00E94AE04E7CF30E0612C60
:1005B000512C712CF0E27F1640F59B32D9F058F4A3
:1005C0009032D1F09332F1F09E3299F576FCFFC073
:1005D000689476F806C09D3291F09033C1F4689427
:1005E00070F8F70123FD959123FF91917F019111FF
:1005F000E1CF29C0689471F8689472F8F2CF6894DA
:1006000073F8EFCF689474F8ECCF77FC1CC080EDE2
:10061000890F8A30C8F676FE05C0649C800D1124CF
:10062000682EDFCF549C800D1124582E689475F8E5
:10063000D8CF9C3619F4689477F8D3CF9C3409F45A
:100640004BC0983671F2892F8F7D8554833008F422
:1006500045C0933609F466C0933709F469C09335F1
:1006600009F475C0943619F0993609F09FC0F80165
:1006700077FE95C061917191819191918F01272DA4
:100680002F76722E97FF09C0909580957095619591
:100690007F4F8F4F9F4F689477F82AE030E0AE018C
:1006A0004F5F5F4F5A010E94DE048A19A82E76FE22
:1006B000C5C0872D8E7FA61408F0BFC074FE12C17E
:1006C00072FC06C1F72DFE7E7F2EB62C872D867814
:1006D000811509F4C0C001C131E083CF3115F9F0B3
:1006E000085F1F4F8FE3898388248394912CAE0188
:1006F0004F5F5F4F5A01E89477F873FC03C085148D
:100700009104B0F181149104D1F5511409F435CF5D
:10071000B60180E290E00E94AE045A94F6CF0C5FDE
:100720001F4FE0CFF801808189830E5F1F4FDCCF20
:10073000F801A190B1908F01662D70E076FC02C0A7
:100740006FEF7FEFC5010E94A3044C01D4CFF801E5
:10075000A190B1908F01662D70E076FC02C06FEF22
:100760007FEFC5010E9498044C01689477F8C5CFCB
:10077000B60180E290E00E94AE045A94C0CFF50129
:1007800077FC859177FE81915F01B60190E00E9430
:10079000AE0451105A94F1E08F1A9108B3CF6191D1
:1007A0007191072E000C880B990B68CF372CE894B9
:1007B00034F82AE030E0953739F1572D597F352E3E
:1007C000903799F058F49835A9F09F36D9F0F60192
:1007D000868197812B96E1E10C9459059837B9F7FA
:1007E00074FC05C020E130E00FC0689434F86894D0
:1007F00032F8F8CF74FE03C0872D8660382E20E1D2
:1008000032E002C028E030E0F80137FE11C061910B
:100810007191819191918F01FE0131965F01AF013C
:100820000E94DE048A19A82E732CE89477F83FCF33
:100830006191719180E090E0EECF782EBA2C74FE39
:1008400045CFFE01EA0DF11D8081803309F043C0E0
:10085000272D297E722E73FC0EC070FE4FC06A2CAD
:10086000B51418F4650C6B18B52C852D8B195B1419
:1008700008F480E0B80EB51408F042C05B1874FEAE
:1008800041C0B60180E390E00E94AE0472FE09C050
:1008900088E590E071FC02C088E790E0B6010E9414
:1008A000AE04A614D8F1AA94B12C4FEFA41AB40A3E
:1008B000CE0101963C01A80EB91EF50182915F019F
:1008C000B60190E00E94AE046A147B04B1F71DCF1C
:1008D000B62C782EB6CF72FC02C0B394BCCFB394C2
:1008E000B394B9CFB62C782EF1CEB60180E290E069
:1008F0000E94AE0433943514C0F3B7CF3B2CFBCF2A
:10090000512CBDCF872D8678811559F280E271FC7C
:100910008BE277FC8DE2B60190E0C1CFB60180E3B7
:1009200090E00E94AE046A94BCCF8FEF9FEF52CF4D
:10093000FC010590615070400110D8F780959095AA
:100940008E0F9F1F0895FC016150704001900110AF
:10095000D8F7809590958E0F9F1F08950F931F9342
:10096000CF93DF93182F092FEB018B8181FD09C0F5
:100970001FEF0FEF812F902FDF91CF911F910F91DC
:10098000089582FF14C02E813F818C819D8128179C
:1009900039073CF4E881F981CF0101969983888376
:1009A00010838E819F8101969F838E83E3CFE8859C
:1009B000F985812F0995892BA1F3DACFFA01AA27AE
:1009C000283051F1203181F1E8946F936E7F6E5F92
:1009D0007F4F8F4F9F4FAF4FB1E03ED0B4E03CD040
:1009E000670F781F891F9A1FA11D680F791F8A1F23
:1009F000911DA11D6A0F711D811D911DA11D20D08A
:100A000009F468943F912AE0269F11243019305D43
:100A10003193DEF6CF010895462F4770405D419334
:100A2000B3E00FD0C9F7F6CF462F4F70405D4A3381
:100A300018F0495D31FD4052419302D0A9F7EACF49
:100A4000B4E0A6959795879577956795BA95C9F778
:100A500000976105710508959B01AC010A2E06946B
:100A60005795479537952795BA95C9F7620F731F24
:100A7000841F951FA01D08952F923F924F925F9261
:100A80006F927F928F929F92AF92BF92CF92DF929E
:100A9000EF92FF920F931F93CF93DF93CDB7DEB703
:100AA000CA1BDB0B0FB6F894DEBF0FBECDBF099497
:100AB0002A88398848885F846E847D848C849B84EE
:100AC000AA84B984C884DF80EE80FD800C811B81FC
:100AD000AA81B981CE0FD11D0FB6F894DEBF0FBE2B
:0A0AE000CDBFED010895F894FFCF9B
:100AEA0000000002000000004900000000000A4364
:100AFA00617272696167652072657475726E7320BE
:0C0B0A00617265206261642025640A00AD
:00000001FF
