:100000000C9456000C9473000C9473000C947300C1
:100010000C9473000C9473000C9473000C94730094
:100020000C9473000C9473000C9473000C94730084
:100030000C9473000C9473000C9473000C94730074
:100040000C9473000C9473000C9473000C94730064
:100050000C9473000C9473000C9473000C94730054
:100060000C9473000C9473000C9473000C94730044
:100070000C9473000C9473000C9473000C94730034
:100080000C9473000C9473000C9473000C94730024
:100090000C9473000C9473000C9473000C94730014
:1000A0000C9473000C9473000C94730011241FBE05
:1000B000CFEFDAE0DEBFCDBF11E0A0E0B1E0E8E7CE
:1000C000F9E002C005900D92A631B107D9F721E001
:1000D000A6E1B1E001C01D92A632B207E1F70E948D
:1000E000A4010C94BA040C940000E8ECF0E09081B8
:1000F00095FFFDCF8093CE0081E090E00895982F8A
:100100009295907F982B892F90E09093CD008093CB
:10011000CC0088E08093C9008EE08093CA000895E7
:1001200080911B0190911C01019690931C0180937A
:100130001B0180911901811109C07E9B07C07D9B25
:100140001DC0E7E1F1E080818F5F8083E9E1F1E0AC
:1001500088277E99839580838181811102C07F9950
:1001600013C083B18270809316018FB190E0880F25
:10017000892F881F990B80931A010895E7E1F1E018
:10018000808181508083E2CF7C9B06C0E7E1F1E073
:10019000818181508183E5CFE7E1F1E081818F5F4B
:1001A0008183DFCF90911F0122E0922790931F015E
:1001B000982B9BB980EA8A95F1F70895EF92FF9208
:1001C0000F931F93CF93DF93082F10921F0110926C
:1001D0001D0180E00E94D20080911D010E94D2008A
:1001E000C0E0D0E0002E000C110BE12CFF24F394B2
:1001F0000CC080931D010E94D20080911D010E94BD
:10020000D2002196C830D10589F098010C2E02C089
:10021000369527950A94E2F78E2D20FFEACF90912C
:100220001E019F2590931E018F2DE3CFDF91CF916B
:100230001F910F91FF90EF900895FF920F931F93DE
:10024000CF93DF9310921E0110921F0107E111E07E
:10025000F8019081F92EFF0CFF08F92697FB8827FB
:1002600080F9F80E818187FBCC27C0F9D82FDD0FEC
:10027000DD0BD827DC0FC295CC0FC07E8091160114
:10028000C82B97FB992794F9C92BC8608D2F0D2E89
:10029000000C990B9F93DF938F2D0F2C000C990B63
:1002A0009F93FF928C2F0C2E000C990B9F93CF9352
:1002B0008EE091E09F938F930E94DD0180E00E9489
:1002C000D2008C2F0E94DE008F2D0E94DE008D2F29
:1002D0000E94DE0080911E010E94D20081E00E94F7
:1002E000D200F801108211828DB79EB708960FB622
:1002F000F8949EBF0FBE8DBFDF91CF911F910F91DC
:10030000FF900895CF93DF93C82FD1E0D0931D01C4
:1003100010921F0181E00E94D2008FE193E00197CB
:10032000F1F700C000008C2F0E94DE0080911E01BA
:100330000E94D200D0931D0110921F0181E00E9403
:10034000D200DF91CF91089583E080BB8FEF8AB90F
:1003500084B911BA1BB815B8E7E1F1E01082118237
:1003600086E00E947F0080E091E0909323018093DB
:100370002201C7E1D1E006C00E941D0110921C01BC
:1003800010921B0180911B0190911C01019690938A
:100390001C0180931B010E94900080911601811125
:1003A000EBCF80911B0190911C010A9758F3888133
:1003B0009981892B811531F3DFCFA0E0B0E0E3EE26
:1003C000F1E00C949304AE014B5F5F4FFA01619131
:1003D0007191AF0180912201909123010E94F3015C
:1003E000E2E00C94AF04ABE0B0E0E9EFF1E00C9494
:1003F00084046C017B018A01FC01178216828381CF
:1004000081FFDAC19AE0492EF6012381F70123FD2D
:10041000859123FF81917F01811509F41FC18532E8
:1004200039F423FD959123FF91917F01953229F4B1
:10043000B60190E00E94F503E7CF30E0612C512C2B
:10044000712CF0E27F1640F59B32D9F058F49032CF
:10045000D1F09332F1F09E3299F576FCFFC06894AA
:1004600076F806C09D3291F09033C1F4689470F82C
:10047000F70123FD959123FF91917F019111E1CF28
:1004800029C0689471F8689472F8F2CF689473F890
:10049000EFCF689474F8ECCF77FC1CC080ED890F27
:1004A0008A30C8F676FE05C0649C800D1124682E43
:1004B000DFCF549C800D1124582E689475F8D8CF46
:1004C0009C3619F4689477F8D3CF9C3409F44BC068
:1004D000983671F2892F8F7D8554833008F445C09A
:1004E000933609F466C0933709F469C0933509F46B
:1004F00075C0943619F0993609F09FC0F80177FE5F
:1005000095C061917191819191918F01272D2F76E5
:10051000722E97FF09C090958095709561957F4FD9
:100520008F4F9F4F689477F82AE030E0AE014F5F1D
:100530005F4F5A010E9425048A19A82E76FEC5C075
:10054000872D8E7FA61408F0BFC074FE12C172FC06
:1005500006C1F72DFE7E7F2EB62C872D867881155D
:1005600009F4C0C001C131E083CF3115F9F0085F53
:100570001F4F8FE3898388248394912CAE014F5FB2
:100580005F4F5A01E89477F873FC03C08514910417
:10059000B0F181149104D1F5511409F435CFB601AD
:1005A00080E290E00E94F5035A94F6CF0C5F1F4F53
:1005B000E0CFF801808189830E5F1F4FDCCFF80107
:1005C000A190B1908F01662D70E076FC02C06FEFB4
:1005D0007FEFC5010E94EA034C01D4CFF801A1903E
:1005E000B1908F01662D70E076FC02C06FEF7FEF57
:1005F000C5010E94DF034C01689477F8C5CFB601AE
:1006000080E290E00E94F5035A94C0CFF50177FC98
:10061000859177FE81915F01B60190E00E94F5031C
:1006200051105A94F1E08F1A9108B3CF61917191F2
:10063000072E000C880B990B68CF372CE89434F800
:100640002AE030E0953739F1572D597F352E903714
:1006500099F058F49835A9F09F36D9F0F6018681C3
:1006600097812B96E1E10C94A0049837B9F774FCBC
:1006700005C020E130E00FC0689434F8689432F887
:10068000F8CF74FE03C0872D8660382E20E132E05B
:1006900002C028E030E0F80137FE11C0619171918D
:1006A000819191918F01FE0131965F01AF010E940E
:1006B00025048A19A82E732CE89477F83FCF61910E
:1006C000719180E090E0EECF782EBA2C74FE45CF89
:1006D000FE01EA0DF11D8081803309F043C0272D12
:1006E000297E722E73FC0EC070FE4FC06A2CB514AA
:1006F00018F4650C6B18B52C852D8B195B1408F458
:1007000080E0B80EB51408F042C05B1874FE41C01A
:10071000B60180E390E00E94F50372FE09C088E50F
:1007200090E071FC02C088E790E0B6010E94F503FA
:10073000A614D8F1AA94B12C4FEFA41AB40ACE0192
:1007400001963C01A80EB91EF50182915F01B60128
:1007500090E00E94F5036A147B04B1F71DCFB62C1C
:10076000782EB6CF72FC02C0B394BCCFB394B394CE
:10077000B9CFB62C782EF1CEB60180E290E00E947F
:10078000F50333943514C0F3B7CF3B2CFBCF512C7A
:10079000BDCF872D8678811559F280E271FC8BE2FE
:1007A00077FC8DE2B60190E0C1CFB60180E390E026
:1007B0000E94F5036A94BCCF8FEF9FEF52CFFC01EC
:1007C0000590615070400110D8F7809590958E0F7C
:1007D0009F1F0895FC016150704001900110D8F7EF
:1007E000809590958E0F9F1F08950F931F93CF9321
:1007F000DF93182F092FEB018B8181FD09C01FEFBB
:100800000FEF812F902FDF91CF911F910F910895BE
:1008100082FF14C02E813F818C819D81281739076A
:100820003CF4E881F981CF01019699838883108394
:100830008E819F8101969F838E83E3CFE885F98522
:10084000812F0995892BA1F3DACFFA01AA27283045
:1008500051F1203181F1E8946F936E7F6E5F7F4F8D
:100860008F4F9F4FAF4FB1E03ED0B4E03CD0670F09
:10087000781F891F9A1FA11D680F791F8A1F911D5C
:10088000A11D6A0F711D811D911DA11D20D009F4AC
:1008900068943F912AE0269F11243019305D3193EE
:1008A000DEF6CF010895462F4770405D4193B3E0D7
:1008B0000FD0C9F7F6CF462F4F70405D4A3318F07E
:1008C000495D31FD4052419302D0A9F7EACFB4E02F
:1008D000A6959795879577956795BA95C9F70097E7
:1008E0006105710508959B01AC010A2E0694579588
:1008F000479537952795BA95C9F7620F731F841FDF
:10090000951FA01D08952F923F924F925F926F9274
:100910007F928F929F92AF92BF92CF92DF92EF928F
:10092000FF920F931F93CF93DF93CDB7DEB7CA1B10
:10093000DB0B0FB6F894DEBF0FBECDBF09942A883B
:10094000398848885F846E847D848C849B84AA84E3
:10095000B984C884DF80EE80FD800C811B81AA8170
:10096000B981CE0FD11D0FB6F894DEBF0FBECDBF3B
:08097000ED010895F894FFCF9A
:100978000000000200000000750000000000256370
:0609880025632563000059
:00000001FF
