:100000000C9456000C9473000C9473000C947300C1
:100010000C9473000C9473000C9473000C94730094
:100020000C9473000C9473000C9473000C94730084
:100030000C9473000C9473000C9473000C94730074
:100040000C9473000C9473000C9473000C94730064
:100050000C9473000C9473000C9473000C94730054
:100060000C9473000C9473000C9473000C94730044
:100070000C9473000C9473000C9473000C94730034
:100080000C9473000C9473000C9473000C94730024
:100090000C9473000C9473000C9473000C94730014
:1000A0000C9473000C9473000C94730011241FBE05
:1000B000CFEFDAE0DEBFCDBF11E0A0E0B1E0ECE0D1
:1000C000F1E102C005900D92AA33B107D9F721E002
:1000D000AAE3B1E001C01D92A834B207E1F70E9483
:1000E00003030C9484080C940000CF93DF930F92C9
:1000F000CDB7DEB789838981982F9295907F8981CA
:10010000292F282B8CEC90E0222F30E0FC0131834A
:10011000208389EC90E028E0FC0120838AEC90E0C9
:100120002EE0FC01208300000F90DF91CF91089515
:10013000CF93DF9300D00F92CDB7DEB789837B8357
:100140006A83000088EC90E0FC018081882F90E0B9
:10015000807299270097B1F38EEC90E02981FC0121
:10016000208381E090E00F900F900F90DF91CF916E
:100170000895CF93DF9300D000D0CDB7DEB79A8338
:1001800089837C836B838C818F938B818F938A810E
:100190008F9389818F938EE091E0892F8F938EE0EA
:1001A00091E08F930E94A7050F900F900F900F90F2
:1001B0000F900F9000000F900F900F900F90DF9115
:1001C000CF910895CF93DF93CDB7DEB780913A01F9
:1001D00090913B01019690933B0180933A0180916D
:1001E0003C018115F9F48FE290E0FC018081882FB9
:1001F00090E0807499270097A9F08FE290E0FC01CD
:100200008081882F90E080729927009731F080914B
:100210003E01815080933E0105C080913E018F5F79
:1002200080933E018FE290E0FC018081882F90E076
:10023000082E892F000C881F990B000C881F991F0E
:10024000817080933C0180913D018115D9F48FE24A
:1002500090E0FC0180818115ACF48FE290E0FC011C
:100260008081882F90E080719927009731F08091EC
:100270003F01815080933F0105C080913F018F5F16
:1002800080933F018FE290E0FC018081882F90E015
:10029000880F892F881F990B817080933D01000082
:1002A000DF91CF910895CF93DF930F92CDB7DEB753
:1002B00089839091400182E0892780934001909149
:1002C00040018981292F282B8BE290E0FC012083BB
:1002D00000000F90DF91CF910895CF93DF93CDB7BA
:1002E000DEB7A3970FB6F894DEBF0FBECDBF8BA3CA
:1002F00019821A821FC18A818170811511F11982B8
:100300008BA1082E000C990B2A8121150CF42F5F6C
:100310002595022E000C330B022E02C09695879570
:100320000A94E2F781709927009751F089818160E2
:1003300089839091410181E089278093410101C027
:10034000198280E090E0A0E7B2E48B839C83AD83C8
:10035000BE832BEA3AEA4AEA50E46B817C818D81C4
:100360009E810E943A05DC01CB018F839887A98783
:10037000BA8720E030E040E850E46B817C818D81D9
:100380009E810E943A05DC01CB018B879C87AD875B
:10039000BE8720E030E040E85FE36F8178858985A3
:1003A0009A850E941A0481151CF481E08F87B5C0DC
:1003B00020E03FEF4FE757E46B857C858D859E8578
:1003C0000E94350581300CF47DC020E030E04AE722
:1003D00054E46B817C818D819E810E941F04DC012D
:1003E000CB01888B998BAA8BBB8B20E030E04AE74E
:1003F00055E4688979898A899B890E943A05DC01DC
:10040000CB018C8B9D8BAE8BBF8B20E030E040E826
:100410005FE36C897D898E899F890E941A0481150A
:100420002CF481E090E0998F888F40C020E03FEF6E
:100430004FE757E46C897D898E899F890E94350535
:10044000813054F120E030E040E251E4688979895C
:100450008A899B890E943A05DC01CB01BC01CD0150
:100460000E949104DC01CB01998F888F10C080E934
:1004700091E09B8F8A8F8A8D9B8D0197F1F79B8FDF
:100480008A8F0000888D998D0197998F888F888D2C
:10049000998D009761F715C06C897D898E899F8938
:1004A0000E949104DC01CB01998F888F888D998DF2
:1004B0009D8F8C8F8C8D9D8D0197F1F79D8F8C8FEB
:1004C000000032C020E030E04FE753E46F817885D0
:1004D00089859A850E9435058130B4F06B857C85CD
:1004E0008D859E850E949104DC01CB019F8F8E8FAC
:1004F0008E8D9F8D99A388A388A199A10197F1F76B
:1005000099A388A3000010C06F81788589859A859A
:100510000E949104DC01CB018F878F858AA38AA179
:100520008A95F1F78AA3000089810E9453018A818C
:100530008F5F8A838A8180310CF4DDCE0000000059
:10054000A3960FB6F894DEBF0FBECDBFDF91CF915B
:100550000895CF93DF9300D00F92CDB7DEB71092FE
:1005600041011092400190913E0180913E01880F1F
:10057000880B8927982F80913E0187FB882780F977
:10058000890F898390913F0180913F01880F880BEB
:100590008927982F80913F0187FB882780F9890F51
:1005A0008A8380913F0187FB882780F9882F90E01C
:1005B0008295880F807E982F986080913E01859566
:1005C000859585958071892B8B8380E00E945301EE
:1005D0008B810E946D0189810E946D018A810E9438
:1005E0006D01809141010E94530181E00E945301FD
:1005F00010923E0110923F0100000F900F900F905B
:10060000DF91CF910895CF93DF93CDB7DEB7A09759
:100610000FB6F894DEBF0FBECDBF80E390E023E0BD
:10062000FC0120838AE290E02FEFFC01208384E22A
:1006300090E02FEFFC01208381E390E0FC01108229
:100640008BE290E0FC01108285E290E0FC011082D8
:1006500010923E0110923F0120E1CE014196FC0133
:10066000322F11923A95E9F788E0898B81E08A8BE5
:100670001B8A81E08C8B88E28D8B1E8A81E08F8BB8
:10068000188E88E1898F1A8E1B8E81E08C8F88E00E
:100690008D8F81E08E8F81E08F8F81E088A386E04F
:1006A0000E9475001092400180E091E09093450116
:1006B000809344011A82198282E08093400180E095
:1006C0000E94530189819A81880F991F880F991F71
:1006D0009E012F5F3F4F820F931F4096FC01808148
:1006E0000E946D0189819A81880F991F880F991F37
:1006F0009E012F5F3F4F820F931F4196FC01808127
:100700000E946D0189819A81880F991F880F991F16
:100710009E012F5F3F4F820F931F4296FC01808105
:100720000E946D0189819A81880F991F880F991FF6
:100730009E012F5F3F4F820F931F4396FC018081E4
:100740000E94530181E00E94530180E090E0A8E400
:10075000B2E48B839C83AD83BE8320E030E04AE724
:1007600055E46B817C818D819E810E943A05DC017C
:10077000CB018F839887A987BA8720E030E040E8D3
:100780005FE36F81788589859A850E941A048115B7
:100790002CF481E090E09C878B8740C020E03FEF05
:1007A0004FE757E46F81788589859A850E943505E2
:1007B000813054F120E030E040E251E46B817C81F3
:1007C0008D819E810E943A05DC01CB01BC01CD01E7
:1007D0000E949104DC01CB019C878B8710C080E9CB
:1007E00091E09E878D878D859E850197F1F79E8785
:1007F0008D8700008B859C8501979C878B878B85D7
:100800009C85009761F715C06F81788589859A85E9
:100810000E949104DC01CB019C878B878B859C8592
:10082000988B8F878F8598890197F1F7988B8F87A1
:10083000000042CF0E94C00408F481E008950E94A5
:1008400033040C94FB040E94F40458F00E94ED045D
:1008500040F029F45F3F29F00C94E40451110C940A
:100860002F050C94EA040E940C0568F39923B1F358
:10087000552391F3951B550BBB27AA2762177307C6
:10088000840738F09F5F5F4F220F331F441FAA1F5A
:10089000A9F335D00E2E3AF0E0E832D09150504016
:1008A000E695001CCAF72BD0FE2F29D0660F771FC4
:1008B000881FBB1F261737074807AB07B0E809F0AA
:1008C000BB0B802DBF01FF2793585F4F3AF09E3F2F
:1008D000510578F00C94E4040C942F055F3FE4F389
:1008E000983ED4F3869577956795B795F7959F5F72
:1008F000C9F7880F911D9695879597F90895E1E0BE
:10090000660F771F881FBB1F621773078407BA071C
:1009100020F0621B730B840BBA0BEE1F88F7E09577
:1009200008950E94140588F09F5798F0B92F9927D1
:10093000B751B0F0E1F0660F771F881F991F1AF0CA
:10094000BA95C9F714C0B13091F00E942E05B1E0FC
:1009500008950C942E05672F782F8827B85F39F0FB
:10096000B93FCCF3869577956795B395D9F73EF463
:1009700090958095709561957F4F8F4F9F4F08950B
:10098000990F0008550FAA0BE0E8FEEF16161706A0
:10099000E807F907C0F012161306E407F50798F008
:1009A000621B730B840B950B39F40A2661F0232B21
:1009B000242B252B21F408950A2609F4A140A6959D
:1009C0008FEF811D811D089597F99F6780E870E082
:1009D00060E008959FEF80EC089500240A941616B5
:1009E000170618060906089500240A94121613061D
:1009F000140605060895092E0394000C11F48823AB
:100A000052F0BB0F40F4BF2B11F460FF04C06F5FC6
:100A10007F4F8F4F9F4F089557FD9058440F551F9C
:100A200059F05F3F71F04795880F97FB991F61F070
:100A30009F3F79F087950895121613061406551FE7
:100A4000F2CF4695F1DF08C0161617061806991F53
:100A5000F1CF86957105610508940895E894BB2748
:100A600066277727CB0197F908950E94C00408F400
:100A70008FEF08950E944D050C94FB040E94ED0435
:100A800038F00E94F40420F0952311F00C94E40453
:100A90000C94EA0411240C942F050E940C0570F3A9
:100AA000959FC1F3950F50E0551F629FF001729F13
:100AB000BB27F00DB11D639FAA27F00DB11DAA1F22
:100AC000649F6627B00DA11D661F829F2227B00D6F
:100AD000A11D621F739FB00DA11D621F839FA00DFA
:100AE000611D221F749F3327A00D611D231F849F4A
:100AF000600D211D822F762F6A2F11249F575040A1
:100B00009AF0F1F088234AF0EE0FFF1FBB1F661F1B
:100B1000771F881F91505040A9F79E3F510580F0E4
:100B20000C94E4040C942F055F3FE4F3983ED4F357
:100B3000869577956795B795F795E7959F5FC1F788
:100B4000FE2B880F911D9695879597F90895A0E043
:100B5000B0E0EDEAF5E00C945D08AE014B5F5F4F4D
:100B6000FA0161917191AF01809144019091450129
:100B70000E94BD05E2E00C947908ABE0B0E0E3EC44
:100B8000F5E00C944E086C017B018A01FC01178290
:100B90001682838181FFDAC19AE0492EF601238112
:100BA000F70123FD859123FF81917F01811509F4D0
:100BB0001FC1853239F423FD959123FF91917F0167
:100BC000953229F4B60190E00E94BF07E7CF30E0EC
:100BD000612C512C712CF0E27F1640F59B32D9F03C
:100BE00058F49032D1F09332F1F09E3299F576FCC0
:100BF000FFC0689476F806C09D3291F09033C1F43E
:100C0000689470F8F70123FD959123FF91917F017E
:100C10009111E1CF29C0689471F8689472F8F2CF0D
:100C2000689473F8EFCF689474F8ECCF77FC1CC02D
:100C300080ED890F8A30C8F676FE05C0649C800D71
:100C40001124682EDFCF549C800D1124582E6894F7
:100C500075F8D8CF9C3619F4689477F8D3CF9C34C4
:100C600009F44BC0983671F2892F8F7D85548330FB
:100C700008F445C0933609F466C0933709F469C097
:100C8000933509F475C0943619F0993609F09FC070
:100C9000F80177FE95C061917191819191918F01D9
:100CA000272D2F76722E97FF09C09095809570950D
:100CB00061957F4F8F4F9F4F689477F82AE030E01F
:100CC000AE014F5F5F4F5A010E94EF078A19A82EAD
:100CD00076FEC5C0872D8E7FA61408F0BFC074FEB7
:100CE00012C172FC06C1F72DFE7E7F2EB62C872D19
:100CF0008678811509F4C0C001C131E083CF311578
:100D0000F9F0085F1F4F8FE3898388248394912C27
:100D1000AE014F5F5F4F5A01E89477F873FC03C050
:100D200085149104B0F181149104D1F5511409F4A2
:100D300035CFB60180E290E00E94BF075A94F6CF0B
:100D40000C5F1F4FE0CFF801808189830E5F1F4F3A
:100D5000DCCFF801A190B1908F01662D70E076FC98
:100D600002C06FEF7FEFC5010E94B4074C01D4CFE2
:100D7000F801A190B1908F01662D70E076FC02C061
:100D80006FEF7FEFC5010E94A9074C01689477F8C7
:100D9000C5CFB60180E290E00E94BF075A94C0CF51
:100DA000F50177FC859177FE81915F01B60190E0B6
:100DB0000E94BF0751105A94F1E08F1A9108B3CFE7
:100DC00061917191072E000C880B990B68CF372C1D
:100DD000E89434F82AE030E0953739F1572D597FFF
:100DE000352E903799F058F49835A9F09F36D9F000
:100DF000F601868197812B96E1E10C946A08983779
:100E0000B9F774FC05C020E130E00FC0689434F8F5
:100E1000689432F8F8CF74FE03C0872D8660382EB0
:100E200020E132E002C028E030E0F80137FE11C0D6
:100E300061917191819191918F01FE0131965F01D4
:100E4000AF010E94EF078A19A82E732CE89477F857
:100E50003FCF6191719180E090E0EECF782EBA2C77
:100E600074FE45CFFE01EA0DF11D8081803309F04B
:100E700043C0272D297E722E73FC0EC070FE4FC01A
:100E80006A2CB51418F4650C6B18B52C852D8B19CC
:100E90005B1408F480E0B80EB51408F042C05B188B
:100EA00074FE41C0B60180E390E00E94BF0772FE6D
:100EB00009C088E590E071FC02C088E790E0B601C7
:100EC0000E94BF07A614D8F1AA94B12C4FEFA41A20
:100ED000B40ACE0101963C01A80EB91EF50182911B
:100EE0005F01B60190E00E94BF076A147B04B1F76E
:100EF0001DCFB62C782EB6CF72FC02C0B394BCCFF7
:100F0000B394B394B9CFB62C782EF1CEB60180E26B
:100F100090E00E94BF0733943514C0F3B7CF3B2C49
:100F2000FBCF512CBDCF872D8678811559F280E2F9
:100F300071FC8BE277FC8DE2B60190E0C1CFB60187
:100F400080E390E00E94BF076A94BCCF8FEF9FEFD1
:100F500052CFFC010590615070400110D8F7809588
:100F600090958E0F9F1F0895FC0161507040019075
:100F70000110D8F7809590958E0F9F1F08950F93BD
:100F80001F93CF93DF93182F092FEB018B8181FDE6
:100F900009C01FEF0FEF812F902FDF91CF911F918D
:100FA0000F91089582FF14C02E813F818C819D8115
:100FB000281739073CF4E881F981CF01019699831C
:100FC000888310838E819F8101969F838E83E3CFD8
:100FD000E885F985812F0995892BA1F3DACFFA01EC
:100FE000AA27283051F1203181F1E8946F936E7F68
:100FF0006E5F7F4F8F4F9F4FAF4FB1E03ED0B4E059
:101000003CD0670F781F891F9A1FA11D680F791F99
:101010008A1F911DA11D6A0F711D811D911DA11DAA
:1010200020D009F468943F912AE0269F11243019BA
:10103000305D3193DEF6CF010895462F4770405D55
:101040004193B3E00FD0C9F7F6CF462F4F70405D04
:101050004A3318F0495D31FD4052419302D0A9F75F
:10106000EACFB4E0A6959795879577956795BA9559
:10107000C9F700976105710508959B01AC010A2E1F
:1010800006945795479537952795BA95C9F7620FF6
:10109000731F841F951FA01D08952F923F924F929A
:1010A0005F926F927F928F929F92AF92BF92CF92F8
:1010B000DF92EF92FF920F931F93CF93DF93CDB701
:1010C000DEB7CA1BDB0B0FB6F894DEBF0FBECDBF79
:1010D00009942A88398848885F846E847D848C844A
:1010E0009B84AA84B984C884DF80EE80FD800C8153
:1010F0001B81AA81B981CE0FD11D0FB6F894DEBF36
:0C1100000FBECDBFED010895F894FFCFA5
:10110C00000000020000000098000000000056657E
:10111C006C6F636974793A20486F72697A6F6E7478
:10112C00616C2025346C75207C2056657274696363
:0A113C00616C2025346C750A000078
:00000001FF
