:100000000C9456000C9473000C9473000C947300C1
:100010000C9473000C9473000C9473000C94730094
:100020000C9473000C9473000C9473000C94730084
:100030000C9473000C9473000C9473000C94730074
:100040000C9473000C9473000C9473000C94730064
:100050000C9473000C9473000C9473000C94730054
:100060000C9473000C9473000C9473000C94730044
:100070000C9473000C9473000C9473000C94730034
:100080000C9473000C9473000C9473000C94730024
:100090000C9473000C9473000C9473000C94730014
:1000A0000C9473000C9473000C94730011241FBE05
:1000B000CFEFDAE0DEBFCDBF11E0A0E0B1E0E2EFCC
:1000C000F8E002C005900D92AA33B107D9F721E0FC
:1000D000AAE3B1E001C01D92A934B207E1F70E9482
:1000E0006A010C9477040C940000E8ECF0E0908135
:1000F00095FFFDCF8093CE0081E090E00895982F8A
:100100009295907F982B892F90E09093CD008093CB
:10011000CC0088E08093C9008EE08093CA000895E7
:100120007F936F939F938F938EE091E09F938F9334
:100130000E949A010F900F900F900F900F900F90C8
:10014000089580913E0190913F01019690933F0167
:1001500080933E0180913C01811109C07E9B07C0C4
:100160007D9B19C0EAE3F1E0808181508083ECE35C
:10017000F1E088277E99839580838181811102C077
:100180007F990FC08FB190E0880F892F881F990B3E
:1001900080933D010895EAE3F1E080818F5F8083E1
:1001A000E6CF7C9B06C0EAE3F1E081818150818348
:1001B000E9CFEAE3F1E081818F5F8183E3CF909122
:1001C000420122E0922790934201982B9BB980EA4A
:1001D0008A95F1F70895EF92FF920F931F93CF93B3
:1001E000DF93082F109242011092400180E00E949C
:1001F000DF00809140010E94DF00C0E0D0E0002ECF
:10020000000C110BE12CFF24F3940CC080934001EF
:100210000E94DF00809140010E94DF002196C830DB
:10022000D10589F098010C2E02C0369527950A94C5
:10023000E2F78E2D20FFEACF909141019F25909308
:1002400041018F2DE3CFDF91CF911F910F91FF904F
:10025000EF900895FF920F931F93CF93DF93109227
:100260004101109242010AE311E0F801C081D181FD
:10027000D7FBFF24F0F880E00E94DF00C7FB88274F
:1002800084F99F2D9295990F907E892B88600E940A
:10029000EB008C2F880F880B8C27C7FBCC27C0F96D
:1002A0008C0F0E94EB008D2F880F880B8D278F0DF0
:1002B0000E94EB00809141010E94DF0081E00E94DA
:1002C000DF00F80110821182DF91CF911F910F9111
:1002D000FF90089583E080BB8FEF8AB984B911BA8B
:1002E0001BB815B8EAE3F1E01082118286E00E94A3
:1002F0007F0080E091E09093460180934501C1E04A
:10030000C0934001109242018C2F0E94DF008FE1C8
:1003100093E00197F1F700C0000088E30E94EB0032
:10032000809141010E94DF00C09340018C2F0E9408
:10033000DF00E6CFA0E0B0E0E0EAF1E00C9450048A
:10034000AE014B5F5F4FFA0161917191AF018091F6
:100350004501909146010E94B001E2E00C946C04CA
:10036000ABE0B0E0E6EBF1E00C9441046C017B0102
:100370008A01FC0117821682838181FFDAC19AE02B
:10038000492EF6012381F70123FD859123FF8191F9
:100390007F01811509F41FC1853239F423FD959140
:1003A00023FF91917F01953229F4B60190E00E94DC
:1003B000B203E7CF30E0612C512C712CF0E27F16B4
:1003C00040F59B32D9F058F49032D1F09332F1F0ED
:1003D0009E3299F576FCFFC0689476F806C09D328F
:1003E00091F09033C1F4689470F8F70123FD959172
:1003F00023FF91917F019111E1CF29C0689471F899
:10040000689472F8F2CF689473F8EFCF689474F838
:10041000ECCF77FC1CC080ED890F8A30C8F676FEE1
:1004200005C0649C800D1124682EDFCF549C800D84
:100430001124582E689475F8D8CF9C3619F4689416
:1004400077F8D3CF9C3409F44BC0983671F2892FDA
:100450008F7D8554833008F445C0933609F466C017
:10046000933709F469C0933509F475C0943619F0CF
:10047000993609F09FC0F80177FE95C0619171919E
:10048000819191918F01272D2F76722E97FF09C0B0
:1004900090958095709561957F4F8F4F9F4F689491
:1004A00077F82AE030E0AE014F5F5F4F5A010E94BB
:1004B000E2038A19A82E76FEC5C0872D8E7FA6146A
:1004C00008F0BFC074FE12C172FC06C1F72DFE7E9B
:1004D0007F2EB62C872D8678811509F4C0C001C106
:1004E00031E083CF3115F9F0085F1F4F8FE3898327
:1004F00088248394912CAE014F5F5F4F5A01E8949A
:1005000077F873FC03C085149104B0F18114910451
:10051000D1F5511409F435CFB60180E290E00E9484
:10052000B2035A94F6CF0C5F1F4FE0CFF8018081E1
:1005300089830E5F1F4FDCCFF801A190B1908F012E
:10054000662D70E076FC02C06FEF7FEFC5010E9460
:10055000A7034C01D4CFF801A190B1908F01662D73
:1005600070E076FC02C06FEF7FEFC5010E949C0334
:100570004C01689477F8C5CFB60180E290E00E9404
:10058000B2035A94C0CFF50177FC859177FE819133
:100590005F01B60190E00E94B20351105A94F1E05D
:1005A0008F1A9108B3CF61917191072E000C880BBF
:1005B000990B68CF372CE89434F82AE030E095376F
:1005C00039F1572D597F352E903799F058F49835D9
:1005D000A9F09F36D9F0F601868197812B96E1E14B
:1005E0000C945D049837B9F774FC05C020E130E045
:1005F0000FC0689434F8689432F8F8CF74FE03C0E2
:10060000872D8660382E20E132E002C028E030E0FD
:10061000F80137FE11C061917191819191918F0123
:10062000FE0131965F01AF010E94E2038A19A82EF4
:10063000732CE89477F83FCF6191719180E090E05E
:10064000EECF782EBA2C74FE45CFFE01EA0DF11DD7
:100650008081803309F043C0272D297E722E73FCE0
:100660000EC070FE4FC06A2CB51418F4650C6B18E0
:10067000B52C852D8B195B1408F480E0B80EB514E9
:1006800008F042C05B1874FE41C0B60180E390E000
:100690000E94B20372FE09C088E590E071FC02C0BE
:1006A00088E790E0B6010E94B203A614D8F1AA949C
:1006B000B12C4FEFA41AB40ACE0101963C01A80E4A
:1006C000B91EF50182915F01B60190E00E94B2036C
:1006D0006A147B04B1F71DCFB62C782EB6CF72FC0E
:1006E00002C0B394BCCFB394B394B9CFB62C782ED8
:1006F000F1CEB60180E290E00E94B203339435144B
:10070000C0F3B7CF3B2CFBCF512CBDCF872D8678C4
:10071000811559F280E271FC8BE277FC8DE2B60123
:1007200090E0C1CFB60180E390E00E94B2036A94EA
:10073000BCCF8FEF9FEF52CFFC010590615070400E
:100740000110D8F7809590958E0F9F1F0895FC019A
:100750006150704001900110D8F7809590958E0FF0
:100760009F1F08950F931F93CF93DF93182F092F87
:10077000EB018B8181FD09C01FEF0FEF812F902FBF
:10078000DF91CF911F910F91089582FF14C02E81A8
:100790003F818C819D81281739073CF4E881F981DC
:1007A000CF0101969983888310838E819F81019662
:1007B0009F838E83E3CFE885F985812F0995892B67
:1007C000A1F3DACFFA01AA27283051F1203181F1C3
:1007D000E8946F936E7F6E5F7F4F8F4F9F4FAF4F49
:1007E000B1E03ED0B4E03CD0670F781F891F9A1F5C
:1007F000A11D680F791F8A1F911DA11D6A0F711D10
:10080000811D911DA11D20D009F468943F912AE01B
:10081000269F11243019305D3193DEF6CF01089503
:10082000462F4770405D4193B3E00FD0C9F7F6CF34
:10083000462F4F70405D4A3318F0495D31FD4052FC
:10084000419302D0A9F7EACFB4E0A6959795879592
:1008500077956795BA95C9F7009761057105089571
:100860009B01AC010A2E069457954795379527951D
:10087000BA95C9F7620F731F841F951FA01D0895B5
:100880002F923F924F925F926F927F928F929F92A0
:10089000AF92BF92CF92DF92EF92FF920F931F938E
:1008A000CF93DF93CDB7DEB7CA1BDB0B0FB6F8943F
:1008B000DEBF0FBECDBF09942A88398848885F847F
:1008C0006E847D848C849B84AA84B984C884DF80F0
:1008D000EE80FD800C811B81AA81B981CE0FD11DD4
:1008E0000FB6F894DEBF0FBECDBFED010895F894AA
:0208F000FFCF38
:1008F20000000002000000007500000000005665C4
:100902006C6F636974793A20486F72697A6F6E749A
:10091200616C2025346C75207C2056657274696385
:0A092200616C2025346C750A00009A
:00000001FF
