:100000000C9456000C9468000C9468000C946800E2
:100010000C9468000C9468000C9468000C946800C0
:100020000C9468000C9468000C9468000C946800B0
:100030000C9468000C9468000C9468000C946800A0
:100040000C9468000C9468000C9468000C94680090
:100050000C9468000C9468000C9468000C94680080
:100060000C9468000C9468000C9468000C94680070
:100070000C9468000C9490000C9468000C94680038
:100080000C9468000C9468000C9468000C94680050
:100090000C9468000C9468000C9468000C94680040
:1000A0000C9468000C9468000C94680011241FBE26
:1000B000CFEFDAE0DEBFCDBF21E0A0E0B1E001C0CC
:1000C0001D92A130B207E1F70E94A6000C94010135
:1000D0000C940000CF93DF93CDB7DEB787E290E0BA
:1000E0002FEFFC0120838CE790E020E2FC012083CD
:1000F0008AE790E02CECFC01208388E290E02FEF6F
:10010000FC0120838AE290E020E4FC01208385E466
:1001100090E028E6FC0120830000DF91CF91089554
:100120001F920F920FB60F9211248F93CF93DF93EC
:10013000CDB7DEB782E0809300010000DF91CF9160
:100140008F910F900FBE0F901F901895CF93DF9354
:10015000CDB7DEB70E946A00789480EF80930001EB
:1001600080910001869586958695882F90E0092ECE
:10017000000CAA0BBB0BBC01CD010E94C60088E29B
:1001800090E0FC011082ECCFE89409C097FB3EF4AC
:1001900090958095709561957F4F8F4F9F4F9923D4
:1001A000A9F0F92F96E9BB279395F6958795779552
:1001B0006795B795F111F8CFFAF4BB0F11F460FF12
:1001C0001BC06F5F7F4F8F4F9F4F16C0882311F06A
:1001D00096E911C0772321F09EE8872F762F05C07E
:1001E000662371F096E8862F70E060E02AF09A9519
:1001F000660F771F881FDAF7880F9695879597F90E
:060200000895F894FFCF01
:00000001FF
